:020000040000FA
:100000000C94CB010C943D160C9416160C94F30131
:100010000C94F3010C94F3010C94F3010C94F30190
:100020000C9464160C94F3010C94F3010C94F301FA
:100030000C94F3010C94F3010C94F3010C94F30170
:100040000C94CC150C94F3010C949A150C94741523
:100050000C94F3010C94F3010C94F3010C94F30150
:100060000C94F3010C94F3015748594E5445520037
:100070004D4147495155455354004C45474F5F50FA
:100080004600424F534557415645004150504C455C
:10009000004F4E4B594F00534F4E59005348415259
:1000A000500053414D53554E470052433600524382
:1000B00035004B415345494B594F5F4D49545355BA
:1000C0004249534849004B415345494B594F5F53AF
:1000D00048415250004B415345494B594F5F4445AD
:1000E0004E4F4E004B415345494B594F5F4A564383
:1000F000004B415345494B594F0050414E41534FDE
:100100004E4943004E4543004C47004A5643004485
:10011000454E4F4E0050554C53455F574944544847
:100120000050554C53455F44495354414E4345009C
:1001300053656E743A200000000000240027002A56
:100140000000000000250028002B00526561647942
:1001500020746F2073656E64204952207369676E46
:10016000616C732061742070696E20005354415299
:1001700054202F55736572732F70656163656D61CF
:100180006E2F636F64652F41726475696E6F2F7295
:100190006F6F4469616C696E6F2F726F6F44696134
:1001A0006C696E6F2E696E6F2066726F6D204F6383
:1001B0007420323920323032310D0A5573696E673E
:1001C000206C6962726172792076657273696F6EF4
:1001D00020332E332E30004B656E6E20696368200D
:1001E0006E696368742E0056657273696F6E2100C4
:1001F000537461747573004F666621004F6E210061
:1002000000000008000201000003040700000000D5
:100210000000000054727920746F20696E6372656B
:1002200061736520746865205245434F52445F47AF
:1002300041505F4D4943524F5320696E20495272DD
:10024000656D6F74652E682E00206B6E6F776E2063
:10025000666F7220612070726F746F636F6C2E0016
:100260002062757420736D616C6C657220746861B6
:100270006E20746865206D696E696D616C206761C0
:1002800070206F662000537061636520626574772B
:1002900065656E2074776F2064657465637465644A
:1002A000207472616E736D697373696F6E20697308
:1002B0002067726561746572207468616E200055F4
:1002C0004E4B4E4F574E00204C534220666972737E
:1002D0007400204D53422066697273740020626975
:1002E000747300205261772D446174613D30780051
:1002F000757300206761703D005265706561740020
:100300004175746F2D0020546F67676C653D310037
:1003100020506172697479206661696C00204578AB
:100320007472613D30780020436F6D6D616E643D85
:1003300030780020416464726573733D307800202A
:10034000626974732072656365697665640020482C
:100350006173683D30780050726F746F636F6C3DED
:100360000000000000230026002900040404040407
:100370000404040202020202020303030303030152
:100380000204081020408001020408102001020429
:10039000081020004E1711241FBECFEFD8E0DEBF9B
:1003A000CDBF23E0ACECB1E001C01D92A33EB2078B
:1003B000E1F711E0A0E0B1E0E0EAF9E302C0059066
:1003C0000D92AC3CB107D9F711E0CBECD1E004C001
:1003D0002197FE010E94AF1CCA3CD107C9F70E94B9
:1003E00095170C94CE1C0C940000AEEEB2E0119662
:1003F0008C93119790E0FC01E158FC4FE491149626
:10040000EC931497FC01E559FC4FE491F0E0EE0FFA
:10041000FF1FEF59FC4F8591949113969C938E93F7
:10042000129708950F931F93CF93DF93E091D60314
:10043000F091D70340914E02808510E0481708F0F4
:1004400064C0142F117000914D0201114FC0842F10
:1004500090E0880F991FE80FF91F0184F285E02DC5
:100460002CEE3FEF112311F024E130E0C0914B025C
:10047000D0914C022C0F3D1FC90163E470E00E9433
:100480009B1CE617F70760F0C90168E270E00E9464
:100490009B1C6F5F7F4F81E090E06E177F0710F528
:1004A0002C0F3D1FC90163E470E00E949B1CE617FE
:1004B000F70750F0C90168E270E00E949B1C6F5F73
:1004C0007F4F6E177F0760F42C0F3D1FC90163E457
:1004D00070E00E949B1CE617F707E8F41FEF15C0B9
:1004E00082E090E090934A02809349020F5F00936C
:1004F0004D028091490290914A020817190628F08E
:1005000010924D024F5F40934E02812FDF91CF91A9
:100510001F910F910895C90168E270E00E949B1C31
:100520006F5F7F4F6E177F07C8F283E090E0DACFEE
:10053000FC019B012C5E3F4FC90163E470E00E9407
:100540009B1CE617F70758F0C90168E270E00E94AB
:100550009B1C6F5F7F4F81E06E177F0708F480E080
:100560000895FC019B0124513109C90163E470E045
:100570000E949B1CE617F70758F0C90168E270E07B
:100580000E949B1C6F5F7F4F81E06E177F0708F40E
:1005900080E008952F923F924F925F926F927F92E8
:1005A0008F929F92AF92BF92CF92DF92EF92FF9283
:1005B0000F931F93CF93DF9300D01F92CDB7DEB779
:1005C00089832A011901862F90E0880F991F0996C7
:1005D0006091D6037091D703860F971F9B838A8300
:1005E000EE20A1F1912CC12CD12C76019981991684
:1005F00009F477C0B201EA81FB81808191810E9478
:100600009802882309F457C0EA81FB81A280B38055
:10061000B101C5010E94B102882369F0CC0CDD1C38
:10062000EE1CFF1C6894C0F88A819B8104969B8312
:100630008A839394DBCFB801C5010E94B10288235D
:10064000D1F1CC0CDD1CEE1CFF1CEECF812C912CCB
:1006500054018394C12CD12C76019981992309F4FA
:1006600040C0B201EA81FB81808191810E949802A1
:10067000882309F1EA81FB8162807380B101C301A3
:100680000E94B102882389F0C828D928EA28FB28CB
:100690008A819B8104969B838A83880C991CAA1C5F
:1006A000BB1C998191509983D8CFB801C3010E9496
:1006B000B1028111EDCF0F900F900F90DF91CF918C
:1006C0001F910F91FF90EF90DF90CF90BF90AF9070
:1006D0009F908F907F906F905F904F903F902F9062
:1006E0000895C092D203D092D303E092D403F09243
:1006F000D50381E0E0CF80914202909143020197BF
:100700009093430280934202089580914202909117
:100710004302019690934302809342020895AF9260
:10072000BF92CF92DF92EF92FF920F931F93CF93DE
:10073000DF936C017B018B01040F151FEB015E0140
:10074000AE18BF08C017D10759F06991D601ED91D5
:10075000FC910190F081E02DC6010995892B79F774
:10076000C501DF91CF911F910F91FF90EF90DF9026
:10077000CF90BF90AF900895FC01538D448D252FED
:1007800030E0842F90E0821B930B541710F0CF962B
:10079000089501970895FC01918D828D981761F05D
:1007A000A28DAE0FBF2FB11D5D968C91928D9F5F74
:1007B0009F73928F90E008958FEF9FEF0895FC0153
:1007C000918D828D981731F0828DE80FF11D858D06
:1007D00090E008958FEF9FEF0895FC01918D228D99
:1007E000892F90E0805C9F4F821B91098F7399271E
:1007F00008958FE492E00E94ED0321E0892B09F433
:1008000020E0822F089580E090E0892B29F00E945B
:10081000F90381110C9400000895FC01A48DA80F28
:10082000B92FB11DA35ABF4F2C91848D90E0019632
:100830008F739927848FA689B7892C93A089B18952
:100840008C91837080648C93938D848D981306C0F3
:100850000288F389E02D80818F7D80830895EF9257
:10086000FF920F931F93CF93DF93EC0181E0888F6A
:100870009B8D8C8D98131AC0E889F989808185FF3A
:1008800015C09FB7F894EE89FF896083E889F989DC
:1008900080818370806480839FBF81E090E0DF91DE
:1008A000CF911F910F91FF90EF900895F62E0B8D31
:1008B00010E00F5F1F4F0F731127E02E8C8D8E11EC
:1008C0000CC00FB607FCFACFE889F989808185FF53
:1008D000F5CFCE010E940D04F1CFEB8DEC0FFD2F73
:1008E000F11DE35AFF4FF0829FB7F8940B8FEA890E
:1008F000FB8980818062CFCF0F931F93CF93DF93CB
:100900008C01D0E0C0E0F801EC0FFD1F649166237C
:1009100041F08FE492E00E942F04892B11F0219680
:10092000F2CFCE01DF91CF911F910F910895682FE3
:100930008FE492E00C942F04CF93DF93EC01888D29
:100940008823B9F0AA89BB89E889F9898C9185FD4A
:1009500003C0808186FD0DC00FB607FCF7CF8C91D8
:1009600085FFF2CF808185FFEDCFCE010E940D047F
:10097000E9CFDF91CF910895833081F028F4813061
:1009800099F08230A9F008958730A9F08830C9F035
:100990008430B1F4809180008F7D03C0809180000D
:1009A0008F7780938000089584B58F7784BD0895F4
:1009B00084B58F7DFBCF8091B0008F778093B0009E
:1009C00008958091B0008F7DF9CFCF93DF93E4E05D
:1009D000F2E08491E3E8F3E0D491EFE6F3E0C49130
:1009E000CC23A1F081110E94BC04EC2FF0E0EE0FAB
:1009F000FF1FEF59FC4FA591B491EC91ED2381E0DD
:100A000090E009F480E0DF91CF91089580E090E0DC
:100A1000FACF1F93CF93DF93282F30E0F901E050F6
:100A2000FE4F8491F901E158FC4FD491F901E55949
:100A3000FC4FC491CC23A9F0162F81110E94BC0455
:100A4000EC2FF0E0EE0FFF1FEF5BFE4FA591B4918E
:100A50008FB7F894EC91111108C0D095DE23DC9388
:100A60008FBFDF91CF911F910895DE2BF8CFCF93E9
:100A7000DF9390E0FC01E158FC4F249185599C4F95
:100A8000FC0184918823C9F090E0880F991FFC0134
:100A9000E95CFE4FA591B491FC01EF5BFE4FC5915F
:100AA000D49161110DC09FB7F8948C912095822349
:100AB0008C938881282328839FBFDF91CF9108954D
:100AC000623051F49FB7F8943C91822F8095832334
:100AD0008C93E8812E2BEFCF8FB7F894EC912E2BCF
:100AE0002C938FBFEACF3FB7F8948091D2019091B9
:100AF000D301A091D401B091D50126B5A89B05C022
:100B00002F3F19F00196A11DB11D3FBFBA2FA92F8C
:100B1000982F8827BC01CD01620F711D811D911D89
:100B200042E0660F771F881F991F4A95D1F70895F5
:100B30008F929F92AF92BF92CF92DF92EF92FF92ED
:100B40006C01F12CE12C0E9473054B015C010E94A9
:100B50007305681979098A099B096C157D058E054D
:100B60009F05A8F3FF90EF90DF90CF90BF90AF90DC
:100B70009F908F9008958F929F92AF92BF92CF9245
:100B8000DF92EF92FF924B015C010E9473056B01B3
:100B90007C010E9473056C197D098E099F09683ECE
:100BA000734081059105A8F321E0821A9108A108FC
:100BB000B10888EEC80E83E0D81EE11CF11C811438
:100BC0009104A104B10429F7FF90EF90DF90CF903A
:100BD000BF90AF909F908F9008952FB7F894609139
:100BE000CE017091CF018091D0019091D1012FBFA2
:100BF000089508950F931F93CF932091C8033091C8
:100C0000C90380911202909113022817390709F045
:100C100040C02091CA033091CB038091140290917F
:100C2000150228173907A9F52091CC033091CD037F
:100C300080911602909117022817390751F50E94EA
:100C4000ED050091BF031091C0032091C1033091C5
:100C5000C203601B710B820B930BC1E06B3F7105EC
:100C60008105910508F4C0E00E94ED056093BF0383
:100C70007093C0038093C1039093C2038091EE02EE
:100C8000833011F41092EE028C2FCF911F910F91AF
:100C90000895C0E0F3CF80910E018253823088F432
:100CA00082E090E090930501809304011092070187
:100CB00010920601109209011092080184E38093BA
:100CC0000E0108951092430210924202E998E0E06A
:100CD000F1E089EF95E093838283E89891838083A4
:100CE000E4E0F1E0118210821382128215821482F4
:100CF00083E380930E010895982F8091ED0288235D
:100D000079F08091EC02992329F061E0811105C00E
:100D10002D9A0895882319F060E00C9409052D9808
:100D200008954F925F926F927F928F929F92AF92AF
:100D3000BF92CF92DF92EF92FF926C0181E00E940E
:100D40007C060E9473052B013C015C014B01F12CD8
:100D5000E12CF89461E08091C3030E940905809121
:100D6000C6039091C7038230910538F0880F991F10
:100D7000880F991F05970197F1F760E08091C303F1
:100D80000E94090578948091C4039091C503880E50
:100D9000991EA11CB11C0E947305681579058A056E
:100DA0009B05C8F364197509860997096C157D05BB
:100DB0008E059F0570F280E0FF90EF90DF90CF905E
:100DC000BF90AF909F908F907F906F905F904F906B
:100DD0000C947C062F923F924F925F926F927F927B
:100DE0008F92AF92CF92DF92EF92FF920F931F9369
:100DF000CF93DF9300D000D000D0CDB7DEB79C8377
:100E00008B837E836D835A834983190127013801BF
:100E1000AA2089F12C2D2150330BC901C12CD12CD2
:100E20007601C39404C0CC0CDD1CEE1CFF1C8A951B
:100E3000D2F7C114D104E104F104B1F1D701C60124
:100E400084219521A621B721892B8A2B8B2B69F030
:100E50008B819C810E9491068D819E810E949805C4
:100E6000F694E794D794C794E4CF89819A810E943D
:100E70009106C101F3CFF12CCF14B1F040FE0EC0AA
:100E80008B819C810E9491068D819E810E94980594
:100E9000F3947694679457944794EECF89819A811E
:100EA0000E949106C101F2CF8820D1F089819A81F8
:100EB00026960FB6F894DEBF0FBECDBFDF91CF915F
:100EC0001F910F91FF90EF90DF90CF90AF908F9098
:100ED0007F906F905F904F903F902F900C94910671
:100EE00026960FB6F894DEBF0FBECDBFDF91CF912F
:100EF0001F910F91FF90EF90DF90CF90AF908F9068
:100F00007F906F905F904F903F902F900895CF9378
:100F1000DF93C3ECD3E0282F269530E028513C4FD7
:100F2000682F70E0C9010E949B1C7A83698385E069
:100F300090E09C838B8361E088810E94370560E0AC
:100F400088810E94090580E0DF91CF910C947C0696
:100F500086E20E94870780E093E20E94910680EC7F
:100F600098E00E94980580E392E00C9491064F92DD
:100F70005F926F927F928F92AF92CF92EF92FF9299
:100F80000F931F932B013C0186E20E94870780E0AC
:100F900093E20E94910680E891E10E9498058824DE
:100FA0008394A12C80E2C82E8301720120E332E0F9
:100FB00040E352E060E976E080E392E00E94EA06D6
:100FC0001F910F91FF90EF90CF90AF908F907F90F7
:100FD0006F905F904F9008958F92AF92CF92EF9263
:100FE000FF920F931F93CF93DF93C82FE62ED42F3A
:100FF00086E20E94870724E0E29E70011124DD232F
:1010000011F06894E1F88C2F90E0982F8827990FC1
:10101000990FE701C09523E0D227C82BD92BE82AE6
:10102000F92A10E000E088248394AA24A3943FE0E6
:10103000C32E2CE033E044E051E06CE177E084E043
:1010400091E00E94EA066DE270E080E090E00E948C
:10105000BB057E0110E000E02CE033E044E051E00D
:101060006CE177E084E091E00E94EA06DF91CF91A5
:101070001F910F91FF90EF90CF90AF908F900895B8
:1010800086E20E94870780E391E10E94910680E357
:1010900091E10E94980586E292E00E94910686E224
:1010A00092E00E94980586E292E00C949106FC0181
:1010B00001900020E9F73197AF01481B590BBC01A3
:1010C0008FE492E00C948F0385E691E00C9457082E
:1010D000CF93DF930E947C04EC010E9464088C0F84
:1010E0009D1FDF91CF9108958F929F92AF92BF92F3
:1010F0000F931F93CF93DF93CDB7DEB7A1970FB6B2
:10110000F894DEBF0FBECDBF19A2423008F44AE00A
:101110008E010F5D1F4F842E912CB12CA12CA501A7
:1011200094010E945F1CE62FB901CA01EA30F4F471
:10113000E05DD801EE938D01232B242B252B79F72D
:1011400090E080E0109719F0CD010E945708A19619
:101150000FB6F894DEBF0FBECDBFDF91CF911F91C8
:101160000F91BF90AF909F908F900895E95CE1CF71
:10117000CF93DF93D0E0C0E0009719F00E945708AA
:10118000EC010E9464088C0F9D1FDF91CF910895A0
:10119000CF92DF92EF92FF92CF93DF936C01990F82
:1011A000EE08FF08F7FE17C08DE20E949704EC01DD
:1011B00066277727CB016C197D098E099F094AE0C4
:1011C0000E9474088C0F9D1FDF91CF91FF90EF90CC
:1011D000DF90CF9008954AE0C701B601DF91CF912B
:1011E000FF90EF90DF90CF900C947408CF93DF9333
:1011F0000E94C808EC010E9464088C0F9D1FDF91BB
:10120000CF9108953F924F925F926F927F928F920B
:101210009F92AF92BF92CF92DF92EF92FF920F9385
:101220001F93CF93DF9300D000D000D0CDB7DEB7AF
:10123000382E5A8349833C832B8338010091D6038F
:101240001091D703862F90E0880F991F0996800F81
:10125000911F9E838D83812C912C54018394C12CEA
:10126000D12C7601332009F452C0ED81FE814080FB
:10127000518069817A81C2010E949802882341F1DC
:10128000C828D928EA28FB282D813E812E5F3F4FB0
:10129000F801808590E0880F991F0996800F911FB3
:1012A0002817390768F4B301ED81FE8182819381AB
:1012B0000E94B102882399F02D813E812C5F3F4F1F
:1012C000880C991CAA1CBB1C3A943E832D83CACF60
:1012D0006B817C81C2010E9498028111D5CF269634
:1012E0000FB6F894DEBF0FBECDBFDF91CF911F9137
:1012F0000F91FF90EF90DF90CF90BF90AF909F90B5
:101300008F907F906F905F904F903F900895C09224
:10131000D203D092D303E092D403F092D50381E0BC
:10132000DECF0F931F93CF93DF93EC018B0187E503
:1013300093E00E947C04888199810197883191050E
:1013400060F5880F991FFC01ED5DFE4F8081918152
:101350000E947C0488819981892B11F58EE493E0A9
:101360000E947C046A857B858C859D8540E10E9476
:10137000740880E20E949704EE85FF85808590E0E6
:101380000196969587950E94C8088FE393E0DF91B8
:10139000CF911F910F910C9468088FEB92E0D8CFFA
:1013A00083E393E00E947C046A817B8190E080E08B
:1013B00040E10E94740887E293E00E947C046C8103
:1013C0007D8190E080E040E10E947408898584FF7F
:1013D0000BC08DE193E00E947C046E817F8190E0E0
:1013E00080E040E10E947408898582FF04C080E1AA
:1013F00093E00E947C04898583FF04C086E093E02B
:101400000E947C048985837009F180E20E94970420
:10141000898581FF04C080E093E00E947C0489EF0D
:1014200092E00E947C040115110581F083EF92E0A7
:101430000E947C049801A2E3B0E00E948C1C4AE068
:101440000E94740880EF92E00E947C04898580FFEE
:1014500009C08A859B85AC85BD85892B8A2B8B2B02
:1014600009F44EC083EE92E00E947C046A857B857D
:101470008C859D8540E10E94740880E20E9497045B
:10148000688570E090E080E04AE00E9474088DED8D
:1014900092E00E947C04898587FF2FC082ED92E054
:1014A0000E9468088881998103976CF5EE85FF8515
:1014B0008185928580329E4430F50E94640886E8DA
:1014C00092E00E947C0488E893E10E94C80880E6CC
:1014D00092E00E947C0480E29EE40E94C80889E4B5
:1014E00092E00E94680884E192E00E946808DF911F
:1014F000CF911F910F910C94640887EC92E0D0CFAC
:101500000E946408CFCFDF91CF911F910F91089572
:101510004F925F926F927F928F929F92AF92BF9203
:10152000CF92DF92EF92FF920F931F93CF93DF93AF
:10153000CDB7DEB760970FB6F894DEBF0FBECDBF54
:1015400020E1829FF0011124EE5EFD4F2081318168
:101550003A832983428053805C824B826480758009
:101560007E826D821A862730310571F4962D9201A4
:101570002227642D742D7095232B09F0752D892F4A
:1015800090950E94B707ABC02031310599F586E2EE
:101590000E94870780E391E10E94910680E391E138
:1015A0000E949805720110E000E0812CA12CF0E16E
:1015B000CF2E26E232E046E252E062E776E086E2B3
:1015C00092E00E94EA0677247301E094F094FE2CE6
:1015D000EE24E628F72810E000E08824839426E231
:1015E00032E046E252E062E776E086E292E00E9474
:1015F000EA0675C02231310569F5D98488E20E9476
:10160000870780E699E00E94910688E592E00E94B3
:101610009805E62CF12C10E000E0812CA12C77E05D
:10162000C72E28E532E048E552E068E572E080EB3D
:1016300094E00E94EA06E9EFCE2ECD0C720110E094
:1016400000E028E532E048E552E068E572E080EB32
:1016500094E0CDCF28303105B1F585E20E948707AF
:1016600080E89DE00E94910680EC96E00E9498053B
:10167000812CA12C30E1C32E12E0E12E10E2F12EDC
:1016800000E010E020EB31E040EB51E060E175E07C
:1016900080EB91E00E94EA0654E0440C551C5A95F8
:1016A000E1F7142D152516258824839460E2C62EB3
:1016B0007201062D20EB31E040EB51E060E175E076
:1016C00080EB91E094CF40E02330310521F02131CF
:1016D000310531F541E0662D842D0E94EC0780E351
:1016E00091E00E947C0470E060E0CE0101960E94CF
:1016F000910960960FB6F894DEBF0FBECDBFDF91A3
:10170000CF911F910F91FF90EF90DF90CF90BF90FE
:10171000AF909F908F907F906F905F904F900895C3
:101720002630310509F048C0C42CD12CF12CE12C15
:1017300004E1CC0CDD1CEE1CFF1C0A95D1F7C301A3
:10174000B0E0A0E024E0880F991FAA1FBB1F2A95D4
:10175000D1F78C299D29AE29BF2924E030E040E053
:10176000562D5F70450F14E0769467941A95E1F753
:1017700021503109A9F7242F2F702C013D01422A55
:1017800086E20E94870780E093E20E94910680E84B
:1017900091E10E94980588248394AA24A394ACE143
:1017A000CA2E8301720120E332E040E352E060E997
:1017B00076E080E392E01BCF2530310501F586E22B
:1017C0000E94870780EE90E20E94910680E790E1F8
:1017D0000E949805842D962D7C010F2C000C000B87
:1017E000110B88248394A12CF0E1CF2E2EE032E05F
:1017F0004EE052E06AE276E08EE092E0F8CE2E30E3
:10180000310509F051C0162D84E20E94870762015C
:10181000E6E0CC0CDD1CEA95E1F790ECC92297E0FC
:10182000D922103498F56894D4F8C12A8091CC015B
:1018300081112EC081E08093CC016894D3F8F12C03
:10184000E12C89E793E00E9491060DE010E0812CE5
:1018500070E1972EA12CB12CD501C4018C219D21C2
:10186000AE21BF21892B8A2B8B2BA9F489E793E02A
:101870000E94910689E793E00E949805B694A79488
:10188000979487940150110939F729CF1F73CDCF51
:101890001092CC01D4CF89E793E00E94980589E7A4
:1018A00093E00E949106EACF2F30310509F051C034
:1018B00080E09091CC01911142C081E08093CC01F5
:1018C000C62CD42CE82EF12C84E20E94870788E6EF
:1018D0009AE00E94910688E793E00E9498058CEBBD
:1018E00091E00E9491068CEB91E00E949805812C7A
:1018F000912C58E0A52EB12C772473940CEB11E0B9
:10190000D501C4018C219D21AE21BF21892B8A2BB9
:101910008B2BC1F4C8010E949805C8010E94910652
:101920007394B694A7949794879485E1781609F4F4
:10193000D6CE24E07212E2CF08E713E0E1CF109296
:10194000CC01BECFC8010E949106C8010E94980533
:10195000E7CF2331310519F4B201C30112CE24318E
:10196000310529F46EEE77E8862D942D0ACE2531C7
:10197000310519F586E20E94870784E294E00E940F
:1019800091068AEA95E00E94980577247301E09415
:10199000F094FE2CEE24E628F72810E000E08824DE
:1019A0008394A12C30E1C32E27EA35E046E152E0D2
:1019B00064ED71E086E192E01ACE2631310509F03E
:1019C0008ECE830184E0169507958A95E1F786E22D
:1019D0000E9487078EE990E00E94910682E094E0E1
:1019E0000E949805842D8F7020E1829FC0011124F0
:1019F000202F2F70822BE42CE624E026E0942E2D5D
:101A00002F70E22EF82E862D8F7090E1899F300185
:101A10001124E628F72810E000E088248394AA2403
:101A2000A39490E1C92E27E031E04EE950E069E24D
:101A300072E08EE990E0DBCDA0E0B1E08BE793E0CF
:101A400013969C938E931297E9E6F0E08081837F52
:101A500084608083E99A85E893E011969C938E9345
:101A600080818C7F81608083E89AE4E0F1E081E00E
:101A700090E091838083138212821582148282E324
:101A800080930E0108955F926F927F928F929F9242
:101A9000AF92BF92CF92DF92EF92FF920F931F937C
:101AA000CF93DF93CDB7DEB7E6970FB6F894DEBFDE
:101AB0000FBECDBF8091EE02833009F079C78091CF
:101AC000F5028823C1F11092F5021092F60280E42B
:101AD0008093D1031092C9031092C8031092CD03D2
:101AE0001092CC031092CB031092CA031092D2032F
:101AF0001092D3031092D4031092D5031092D00306
:101B00008091D10386FF3EC081E0E6960FB6F8943F
:101B1000DEBF0FBECDBFDF91CF911F910F91FF9020
:101B2000EF90DF90CF90BF90AF909F908F907F907D
:101B30006F905F9008951092D1038091C8039091A7
:101B4000C9039093D9038093D8038091CC039091DB
:101B5000CD03B0E0A0E08093DE039093DF03A09379
:101B6000E003B093E1038091CA039091CB03B0E00E
:101B7000A0E08093DA039093DB03A093DC03B0939F
:101B8000DD03A8CFE091D603F091D7032085822F03
:101B90008F7B843009F099C083859485865891099C
:101BA0008C35910508F091C085859685243031F5F6
:101BB0008197489708F089C087859089089708978A
:101BC00008F083C081E08093D1038091DA03909183
:101BD000DB039093CB038093CA038091DE03909143
:101BE000DF039093CD038093CC038091D803909131
:101BF000D9039093C9038093C80386CF8254910977
:101C00008F9708F062C0E12C00E312E020E936E093
:101C100040E352E063E080E20E94CA02882309F4B4
:101C200054C0E091D603F091D703E157FF4F2081D4
:101C30003181285031092830310508F046C04091E3
:101C4000D2039091D3033091D4032091D503632F15
:101C500070E07093CD036093CC03642F792F6E3EB8
:101C600057E8750779F444E150E05093C903409375
:101C7000C80330E03093CB032093CA0390E29093E3
:101C8000D00343CF9095491310C050E05093CB033D
:101C90004093CA03922F909539130CC027E030E08F
:101CA0003093C9032093C803E9CF7093CB036093AB
:101CB000CA03F0CF43E150E05093C9034093C803F7
:101CC0003093CC032093CD03D9CFE091D603F0918C
:101CD000D7038085843609F0AEC083859485C39789
:101CE000859708F0A8C0858596854A97439708F0A0
:101CF000A2C0E12C00EB11E020E135E040EB51E027
:101D000063E080E10E94CA02882309F494C0F09045
:101D1000D203CF2CD090D30348E0A42EB12C82E084
:101D2000C81680E2D80619F13CE0A32EB12C9AEA3D
:101D3000C9169AE5D906D9F02BE0A22EB12CA4E55C
:101D4000CA16A2E3DA0699F09AE0A92EB12CB3E004
:101D5000CB16B1E0DB0659F05DE0A52EB12CE3E235
:101D6000CE16EBECDE0619F089E0A82EB12CE12CA2
:101D700000EB11E020E135E040EB51E063E280E26E
:101D80000E94CA02882309F456C0FD244091D20360
:101D90005091D3036091D4037091D5039A0104E06C
:101DA000369527950A95E1F73093CB032093CA0324
:101DB000262F30E03093CD032093CC03242F262709
:101DC00025279F2D92959F709F259F70342F3F70E0
:101DD000931719F094E09093D103F9E0AF16B10492
:101DE00079F49091D10390619093D103E091CE0367
:101DF000F091CF03CE2ADF2AD092CF03C092CE0338
:101E0000271729F09091D10394609093D103E0912A
:101E1000D603F091D7032185328528323A4028F441
:101E20009091D10391609093D103B092C903A09295
:101E3000C80390E324CFE091D603F091D7038085C7
:101E4000803209F075C0EE24E3940CE013E02CE13D
:101E500037E044E051E061E08FE00E94CA0288234D
:101E600009F466C0A091D603B091D703FD01E95BE8
:101E7000FF4F20813181245031092530310508F090
:101E800057C090E89093D1030091D2031091D303EF
:101E90002091D4033091D503E02FE370B901A8015C
:101EA00012E076956795579547951A95D1F7509317
:101EB000CA031092CB037A01FF24F092CD03E09283
:101EC000CC0319960D90BC91A02DA536B44068F5B1
:101ED0009091E2039F5F9093E20300FF10C022E81D
:101EE0002093D1032091DE034095241719F036E8A2
:101EF0003093D10330E03093CD032093CC03923064
:101F000028F09091D10391609093D1039FE090933A
:101F1000D003E15021E130E0E23010F023E030E086
:101F20003093C9032093C803F0CD1092E203EECFA3
:101F3000E091D603F091D7038385948584974A97DF
:101F400008F054C020852A3129F02A3219F02032B5
:101F500009F04CC0858596850897089708F046C01B
:101F600030E0C901019797FDC9019595879508E56E
:101F700012E028E532E040EB54E063E00E94020901
:101F80008823A1F14091D2035091D3036091D403EF
:101F90007091D503242F2F77E7E0769567955795B5
:101FA0004795EA95D1F7E091D603F091D703A18543
:101FB000B285A438B34018F491E09093D10330E097
:101FC0003093CD032093CC035093CB034093CA03AB
:101FD000408550E09A012150310937FD9A0135952D
:101FE00027952093D00322E130E09ACF81E08093BF
:101FF0004E0289E793E090934C0280934B0210923B
:102000004D020E941202813009F063C0C12CD12C14
:10201000760110E0E091D603F091D703908580918E
:102020004E028917E0F40E941202082F0E94120249
:1020300001110BC0813009F04CC0CC0CDD1CEE1C32
:10204000FF1C6894C0F81F5FE5CF013009F041C064
:1020500081113FC0CC0CDD1CEE1CFF1CF4CF109393
:10206000D003C092D203D092D303E092D403F09273
:10207000D5038C2D8F7390E09093CD038093CC0388
:10208000960146E0369527954A95E1F72F7133275B
:102090003093CB032093CA03960122273071232B60
:1020A00031F4805C9F4F9093CD038093CC0380E804
:1020B000D3FC88E88093D10381859285833E984044
:1020C00028F48091D10381608093D1038EE090E069
:1020D00090CDE091D603F091D703838594858897BE
:1020E0004D9708F046C0858596850C970B9708F0AC
:1020F00040C083E080934E028CEB91E090934C02C1
:1021000080934B0210924D020E941202813089F599
:102110000E941202182F81112CC0C12CD12C7601E3
:10212000E091D603F091D703908580914E028917F4
:1021300008F04BC00E941202B82E1330B1F00E947A
:102140001202082F133021F40E941202081311C04A
:10215000B1E0BB1231C001110CC0CC0CDD1CEE1C77
:10216000FF1C6894C0F81F5FDBCF0E941202B816F4
:1021700031F3E091D603F091D70320852C3319F089
:10218000243009F0D1C083859485865891098C3517
:10219000910508F0C9C085859685243009F05AC09C
:1021A0008197489708F0C0C087859089089708975D
:1021B00008F0BAC081E807CDB110DBCF0130C9F615
:1021C000CC0CDD1CEE1CFF1CCECF1093D003C092B4
:1021D000D203D092D303E092D403F092D5038D2D95
:1021E0002C2D30E01432F8F480E88093D103309342
:1021F000CD032093CC038D2D90E09093CB0380935F
:10220000CA03E0FE03C088E88093D10381859285EC
:102210008A389C4028F48091D10381608093D10357
:102220008FE090E0E6CC90E99093D103D7FE03C015
:1022300098E99093D1033093CD032093CC038F770B
:1022400090E09093CB038093CA03F092CF03E09287
:10225000CE03DCCF825491098F9708F065C0EE243D
:10226000E39400E312E020E936E040E352E063E06B
:102270008CE10E94CA02882309F456C0E091D6037B
:10228000F091D703E158FF4F208131812850310967
:102290002830310508F048C090E89093D103409170
:1022A000D2035091D3036091D4037091D5038A0176
:1022B0009B0194E036952795179507959A95D1F748
:1022C000F8011093CD030093CC038A019B01A4E194
:1022D0003695279517950795AA95D1F71093CB03B7
:1022E0000093CA0324E030E090E0AE2FAF709A0F65
:1022F000B4E0F695E795BA95E1F721503109A9F7D1
:1023000049274F70552766277727452B462B472BA4
:1023100019F094E89093D10326E030E03093C9039C
:102320002093C8039CE1ABCCE091D603F091D70396
:102330008085843269F1823209F057C081859285A7
:1023400082369D4508F0E0CB8385948508970797F2
:1023500008F0DACBE55BFF4F808191810897079702
:1023600008F0D2CB81E08093D1038091DA03909181
:10237000DB039093CB038093CA038091DE0390919B
:10238000DF039093CD038093CC0385E090E031CCC4
:10239000838594858D5791098735910530F585851D
:1023A0009685CE978C9708F5E12C0EE012E02AE294
:1023B00036E04EE052E063E080E10E94CA028823EA
:1023C000A1F02091D2034091D30350E05093CD036C
:1023D0004093CC0330E03093CB032093CA0390E1C9
:1023E0009093D00325E030E09BCDE091D603F091AF
:1023F000D7038085982F9F7D943419F0863009F09B
:1024000086C023853485215431092F32310508F0E7
:102410007EC025853685215431092E32310508F0DC
:1024200076C08630B1F481E08093D1038091DA03E5
:102430009091DB039093CB038093CA038091DE03DA
:102440009091DF039093CD038093CC0380E190E0E3
:10245000D0CBE12C06E212E022E736E046E252E081
:1024600063E0843699F580E10E94CA02882309F46A
:102470004EC08091D2039091D3039093CB0380936D
:10248000CA0322E736E046E252E063E080E20E94BF
:10249000CA028823E1F19091D2033091D3032091B5
:1024A000D4038091D5032095821731F09095391788
:1024B00019F094E09093D103982F832F9093CD033C
:1024C0008093CC0380E38093D003C0CF80E20E944E
:1024D000CA028823E1F08091D4033091D503209182
:1024E000D2039091D3032093CA039093CB03932FED
:1024F0009095891307C090E09093CD038093CC030F
:1025000080E2E1CF8093CC033093CD03F9CFE0910B
:10251000D603F091D703838594852085243461F513
:102520000B970A9748F5858596858A974E9720F5EB
:10253000EE24E3940EEE12E026E638E04EEE52E092
:1025400063E080E20E94CA028823B1F0E091D603E2
:10255000F091D703E157FF4F208131812B50310992
:102560002A30310548F490E89093D10390E290939B
:10257000D00328E130E0D4CCE091D603F091D7032A
:102580002085838594850297049708F063C02432E0
:1025900009F060C0858596850F970C9708F05AC0A2
:1025A000EE24E39407E011E029E232E04EE950E046
:1025B00063E080E10E94CA02882309F44BC0E091E5
:1025C000D603F091D703DF01A15BBF4F2D913C9162
:1025D0002250310924303105E8F590E89093D10379
:1025E0003091D2032091D303432F522F622F629553
:1025F0006F702F70A4E056954795AA95E1F74F703C
:102600003F709FE0962792279427391719F094E896
:102610009093D1030184F285E02DE83FF14128F445
:102620009091D10392609093D1036093CA0310926A
:10263000CB0390E1299F90011124242B3093CD03EB
:102640002093CC0326E130E03093C9032093C803E4
:1026500090E115CBE091D603F091D70320858385D7
:10266000948540970D97C8F52432B9F585859685F0
:102670004597409790F5E12C07EA15E024ED31E00D
:1026800046E152E063E080E10E94CA02882329F11A
:10269000E091D603F091D703DF01A15BBF4F2D91ED
:1026A0003C912850310927303105B8F42091D203EC
:1026B0009091D30392279F3F81F441855285443105
:1026C000554018F491E09093D10330E03093CD035E
:1026D0002093CC0325E130E0B7CFE090D603F09013
:1026E000D703F7018085863609F053C0670120E0E3
:1026F00030E040E010E000E0712C612C512CAA2465
:10270000A394B12CD6011B96ED91FC91B2E0AB0ED7
:10271000B11CD6011D968D909C90C401BF010E94F2
:102720009B1CDB01E80DF91D71973E97A8F5512F11
:10273000602F772D862D952D01E00E94B51CF32F7B
:10274000E42F152F062F772E682E592E129708F496
:10275000216084E0C80ED11C95E6A916B10491F65B
:1027600087E190E09093C9038093C80382E380934C
:10277000D00380E18093D1032093CE03F093CF0365
:10278000E093D2035093D3036093D4037093D503A3
:10279000BBC9843108F4B5C08E010F5F1F4F82E3BF
:1027A000F80111928A95E9F7D70118964C91425099
:1027B000550B60E024E0822F90E0841795079CF48D
:1027C000880F991FF701E80FF91F8185823348F4BC
:1027D000F801E80FF11D90819F5F9083681708F45E
:1027E000682F2E5FE8CF1EAA1DAA9E012B5C3F4FCB
:1027F000AE014A5C5F4FC8010E940C17882309F4A0
:1028000080C082E3F80111928A95E9F7A091D6037E
:10281000B091D70318964C9118974250550B60E031
:1028200023E0822F90E0841795079CF4880F991F6E
:10283000FD01E80FF91F8185823348F4F801E80FA4
:10284000F11D90819F5F9083681708F4682F2E5FB9
:10285000E8CF1CAA1BAA9E012D5C3F4FAE014C5C29
:102860005F4FC8010E940C17E091D603F091D70387
:102870006085862F869582508093D003813218F12F
:10288000615480E22DA9211120C04BA94423C9F134
:102890000EA992E3099F800111242CA9299F900180
:1028A0001124499FA00111240E940209882349F1A3
:1028B0002CA99BA9322F292F3093CF032093CE032D
:1028C00022E030E02DCB63E0DDCF0EA992E3099F3B
:1028D00080011124299F900111244CA9499FA00136
:1028E0001124E12C0E94CA02882359F02EA99DA927
:1028F000322F292F3093CF032093CE0321E030E0F5
:102900000FCBE091D603F091D7030085063008F491
:10291000FBC83B9673E0E72EF12C25EC3DE94CE13A
:1029200051E810E0AAE0DA2EE016F10688F584817D
:10293000958181909190D89E5001D99EB00C112420
:10294000D40163E0AA0FBB1F6A95E1F7C12CAA1658
:10295000BB0688F0D89CB001D99C700D1124A3E06F
:10296000880F991FAA95E1F7CC24C39468177907BB
:1029700010F482E0C82E63E971E080E091E00E94EB
:102980004F1C9B01AC012C258FEFE81AF80ACCCF25
:102990002093D2033093D3034093D4035093D503B1
:1029A00080E28093D0031092C9031092C803ACC890
:1029B00080E0ABC8CF92DF92EF92FF921F93CF934C
:1029C000DF93C82F0E94430D182F8823B9F0809100
:1029D000C8039091C903892BD1F410E00E94ED0542
:1029E0006093BF037093C0038093C1039093C203AD
:1029F0008091EE02833011F41092EE02812FDF916C
:102A0000CF911F91FF90EF90DF90CF9008950E949B
:102A1000ED05C090BF03D090C003E090C103F090DB
:102A2000C2036C197D098E099F096B3F71058105F1
:102A3000910598F288E691E00E9457086C2F70E0AB
:102A400090E080E04AE00E9474080E94640880914F
:102A5000EE028330E1F0F0E0E0E080E1C89FE001C9
:102A60001124CE5EDD4F80E1DE0101900D928A954A
:102A7000E1F71986E091D603F091D703618572855D
:102A800088EC93E00E9491090E946408A7CF0E94FD
:102A9000430D882301F3E8ECF3E0DFCFCF92DF9220
:102AA000EF92FF920F931F93CF93DF93EB017B0184
:102AB00020E1E20EF11C8B016C01C61AD70AC60197
:102AC000800F911F0E94391CF80181938F01EE1530
:102AD000FF05A9F7CE01DF91CF911F910F91FF90D4
:102AE000EF90DF90CF9008951F920F920FB60F9244
:102AF00011242F933F934F935F936F937F938F9303
:102B00009F93AF93BF93EF93FF938FE492E00E9464
:102B10000D04FF91EF91BF91AF919F918F917F91A4
:102B20006F915F914F913F912F910F900FBE0F903A
:102B30001F9018951F920F920FB60F9211242F938A
:102B40008F939F93EF93FF93E0915F02F091600268
:102B50008081E0916502F091660282FD1BC0908148
:102B6000809168028F5F8F7320916902821741F014
:102B7000E0916802F0E0E15BFD4F958F8093680281
:102B8000FF91EF919F918F912F910F900FBE0F901A
:102B90001F9018958081F4CF1F920F920FB60F925D
:102BA00011242F933F938F939F93AF93BF93809163
:102BB000CE019091CF01A091D001B091D10130917F
:102BC000CD0123E0230F2D3758F50196A11DB11D2E
:102BD0002093CD018093CE019093CF01A093D0019B
:102BE000B093D1018091D2019091D301A091D401F1
:102BF000B091D5010196A11DB11D8093D201909392
:102C0000D301A093D401B093D501BF91AF919F910F
:102C10008F913F912F910F900FBE0F901F9018959D
:102C200026E8230F0296A11DB11DD2CF1F920F924D
:102C30000FB60F9211242F933F934F935F936F938F
:102C40007F938F939F93AF93BF93EF93FF93E09105
:102C50000201F09103010995FF91EF91BF91AF91AE
:102C60009F918F917F916F915F914F913F912F91A4
:102C70000F900FBE0F901F9018951F920F920FB6D6
:102C80000F9211242F933F934F935F936F937F93F2
:102C90008F939F93AF93BF93EF93FF93E0910001C6
:102CA000F09101010995FF91EF91BF91AF919F9133
:102CB0008F917F916F915F914F913F912F910F90E5
:102CC0000FBE0F901F9018951F920F920FB60F9284
:102CD00011242F933F934F935F936F937F938F9321
:102CE0009F93AF93BF93EF93FF93E091F002F09126
:102CF000F10290818091F20298232091F3023091A9
:102D0000F4022F3F320731F02F5F3F4F3093F40230
:102D10002093F3028091EE02811132C0911116C00E
:102D20002091F3023091F4022536310558F01092CB
:102D3000F5023093F8022093F70281E08093F602C7
:102D40008093EE021092F4021092F3028091ED0251
:102D5000882329F081E0911180E00E947C06FF9198
:102D6000EF91BF91AF919F918F917F916F915F9103
:102D70004F913F912F910F900FBE0F901F9018957C
:102D80008091EE028130A1F4992301F3E091F602E3
:102D90008E0F8093F602F0E0EE0FFF1FE251FD4F21
:102DA0002091F3023091F4023287218782E0C8CF6C
:102DB0008091EE02823039F5911119C0E091F6024E
:102DC00081E0E43620F08093F50283E0B9CF8E0FE6
:102DD0008093F602F0E0EE0FFF1FE251FD4F2091CD
:102DE000F3023091F4023287218781E0A9CF20914C
:102DF000F3023091F4022536310508F4A7CF83E0C1
:102E00008093EE02A3CF8091EE02833009F09ECF33
:102E1000992309F497CF9ACFEF92FF920F931F93C4
:102E2000CF93DF93EC01F62F8A01790190E080E0E7
:102E300030E0E0E0DE01AE0FB11D2C91222341F025
:102E4000320F2E9F800D911D11241C92FE1315C070
:102E5000332399F0532F5695850F911D632F70E002
:102E60000E949B1CDE01A60FB11D3C93D8013C9132
:102E700031110EC06C9390E080E0EF5FFE17D0F64A
:102E800081E0DF91CF911F910F91FF90EF90089516
:102E9000D7013C91332371F380E0F3CFEFE4F2E00C
:102EA0001382128288EE93E0A0E0B0E084839583E1
:102EB000A683B78387E591E09183808385EC90E0DA
:102EC0009587848784EC90E09787868780EC90E0F4
:102ED000918B808B81EC90E0938B828B82EC90E0E5
:102EE000958B848B86EC90E0978B868B118E128E5F
:102EF000138E148E8EEE92E09093D7038093D603B8
:102F000080E00E94F501ECEEF2E01082118283E095
:102F10008093C3030E94ED056093BF037093C003C9
:102F20008093C1039093C2030895CF93DF93CDB7ED
:102F3000DEB766970FB6F894DEBF0FBECDBF7894AC
:102F400084B5826084BD84B5816084BD85B58260AE
:102F500085BD85B5816085BD80916E00816080935F
:102F60006E001092810080918100826080938100C8
:102F700080918100816080938100809180008160D8
:102F8000809380008091B10084608093B100809133
:102F9000B00081608093B00080917A00846080935B
:102FA0007A0080917A00826080937A0080917A0022
:102FB000816080937A0080917A00806880937A00A3
:102FC0001092C10062E083E00E94370562E082E077
:102FD0000E94370562E084E00E9437050FE011E0AF
:102FE000F4E1EF2EF1E0FF2E61E0D8018D918D012B
:102FF0000E943705E016F106B9F78BE793E090934E
:10300000030180930201809169008C6080936900C4
:10301000E99A85E893E09093010180930001809103
:103020006900836080936900E89AE0915F02F09103
:10303000600212E01083E0915B02F0915C0210826A
:10304000E0915D02F0915E0280E180831092670260
:10305000E0916302F091640286E08083E091610276
:10306000F0916202808180618083E0916102F09141
:103070006202808188608083E0916102F091620247
:10308000808180688083E0916102F091620280819A
:103090008F7D80838CE691E00E94680888E08093B1
:1030A000C30381E08093ED0261E08DE00E9437056B
:1030B00087E00E94F50185E08093EC0261E00E94C8
:1030C0003705F8941093B0001093B10084E6809314
:1030D000B3008093B4001092B20084E0809370003B
:1030E0008091EE02833011F41092EE02789460E049
:1030F0008091EF020E94370581E18093EC028BE41E
:1031000091E00E947C0488E090E00E94F60890E044
:1031100080E00E94391C898B81E090E00E94391C7C
:103120008A8B82E090E00E94391C8B8B83E090E0D8
:103130000E94391C8C8B89899A89AB89BC898E3114
:103140009B4AA740B04B09F084C004E010E0B801EE
:10315000625F7D4FC8010E944E15BE016F5F7F4FB9
:10316000C8010E944E1589819A810E94F6086B81E0
:103170007C8190E080E04AE00E9474080E9464082C
:103180006D817E8190E080E04AE00E9474080E9498
:1031900064080E946408005F1F4F04331105B9F6EC
:1031A00075E0272E312CE2E0CE2ED12C55E3B52E42
:1031B00066E3A62E90910E0180914802981791F037
:1031C0008EE891E00E94570860910E0170E090E057
:1031D00080E04AE00E9474080E94640880910E0119
:1031E000809348020E94ED052B013C01409244026D
:1031F00050924502609246027092470222E330E00C
:1032000040E050E00E945F1CCA01B90124E130E0B7
:1032100040E050E00E945F1C162F24E031E03E8B1E
:103220002D8BEE24E394F12CAD89BE89ED91FD91B7
:10323000BE8BAD8BE730F10508F075C0EE5DF64E44
:103240000C94AF1C3F19471949197819CB19DD198E
:10325000F1198FE791E00E94B80882E090E0909326
:10326000050180930401109207011092060110924B
:1032700009011092080184E380930E0191CF60E070
:10328000F701E25FFE4F80810E9409054CC061E0BA
:10329000F7CFC701880F991F880F991FFC01E151D3
:1032A000FE4F4F0180819181A281B381A3019201E0
:1032B000281B390B4A0B5B0BDA01C90180359105DC
:1032C000A105B10580F1C7010197FC01E251FE4F54
:1032D000608121E062276083815F9E4FDC018C91D9
:1032E0000E940905F40140825182628273821BC0F0
:1032F000C701880F991F880F991F9C012A523E4FC2
:103300004901F90180819181A281B381A3019201D8
:10331000281B390B4A0B5B0BDA01C901883C91056C
:10332000A105B10580F6BFEFEB1AFB0AE6E0EE1649
:10333000F10409F079CF2091110280910F02909150
:10334000100228171906A1F085E991E00E9457089C
:10335000E0910F02F0911002EE0FFF1FEB5EFE4FA7
:10336000808191810E94B80880910F0280931102A0
:10337000E0910F02F0911002E730F10508F04EC025
:10338000EC53F64E0C94AF1C041A241A391A591A2D
:10339000871AE01AFE1AC7010197FC01EA52FE4F94
:1033A0002081211709F4BFCF1083815F9E4FDC017C
:1033B0008C911123A1F060E067CFC7010197FC0158
:1033C000EA52FE4F2081211709F4ADCF1083815FAF
:1033D0009E4FFC018081112311F0143061F761E0F0
:1033E00053CFC7010197FC01EA52FE4F208112170B
:1033F00009F499CF1083815F9E4FDC018C911430CA
:1034000071F31830B1F6EBCF0E94E504892B31F44B
:1034100021E030E03093100220930F028FE492E01D
:103420000E94ED03892B09F410C18FE492E00E9401
:10343000CB038E3609F405C10CF0FAC0863609F4C8
:1034400074C187ED91E0FFC08091440290914502E4
:10345000A0914602B091470280930B0290930C0218
:10346000A0930D02B0930E02D0921002C0920F02F0
:10347000D5CF8091440290914502A0914602B0912F
:10348000470240910B0250910C0260910D02709125
:103490000E02841B950BA60BB70BC297A105B105B5
:1034A00008F4BCCF43E050E05093100240930F0269
:1034B000B5CF0E94E504019739F484E090E0909341
:1034C000100280930F02AACF80910B0290910C0200
:1034D000A0910D02B0910E028854944FAF4FBF4F90
:1034E000409144025091450260914602709147021A
:1034F000481759076A077B0708F490CF0E944B06CC
:10350000A6E0B0E0B0931002A0930F0287CF8091A5
:10351000440290914502A0914602B09147028093E7
:10352000070290930802A0930902B0930A02209127
:103530000B0230910C02821B930B309210022092EE
:103540000F02092E000CAA0BBB0B883B9B40A10568
:10355000B10598F580910E01843389F040F48233EF
:1035600059F0833309F05ACF0E941C0D57CF853391
:10357000A9F08633C9F352CF0E9462064FCF109252
:10358000050110920401D0920701C0920601109229
:10359000090110920801B0920E0140CF109205016E
:1035A000109204011092070110920601D0920901B5
:1035B000C0920801A0920E0131CF0E944B062ECF7F
:1035C0008091440290914502A0914602B091470239
:1035D00040910702509108026091090270910A021D
:1035E000841B950BA60BB70BC297A105B10508F478
:1035F00015CF1092100210920F0210CF0E94E50416
:10360000019709F00BCF8091440290914502A0915F
:103610004602B09147028093070290930802A0935C
:103620000902B0930A023092100220920F02F6CEE5
:10363000833709F47DC0863709F003CF87EE91E028
:1036400002C08CEF91E00E94680880910E018233E5
:1036500009F471C0833309F47BC080910E01843377
:1036600009F492C008F07FC0823309F080C08091D5
:103670004202909143021816190644F585E08093A2
:10368000EC0281E00E94880A8091420290914302FC
:10369000019790934302809342028091420290915D
:1036A0004302892B19F480E18093EC02809142025D
:1036B000909143020E94C8088EEB91E00E94B808E6
:1036C00065E070E080E090E00E94BB0580914202DE
:1036D0009091430297FF4BC0F6E0F093EC0282E03A
:1036E0000E94880A80914202909143020196909331
:1036F0004302809342028091420290914302892BBF
:1037000019F480E18093EC0280914202909143028F
:103710000E94C8088BEA91E00E94B80865E070E05A
:1037200080E090E00E94BB0522C087EF91E08BCF44
:1037300080EF91E088CF0E94430D882309F497CF52
:103740000E94FA05882309F492CF0E94620685CF71
:103750000E94430D882359F00E94FA05882339F00E
:103760000E941C0D7ACF853319F18633A9F120E030
:1037700030E0232B09F41ECD0E94F903882309F4BD
:1037800015CD0E94000012CD80E00E94DA1488233B
:1037900071F31092050110920401D0920701C092BA
:1037A00006011092090110920801B0920E01DFCFBC
:1037B00081E00E94DA148823D1F210920501109260
:1037C00004011092070110920601D0920901C092E3
:1037D0000801A0920E01CBCF82E00E94DA14882368
:1037E00031F22EE13BEA47E050EB29833A834B83E9
:1037F0005C83AE014F5F5F4F7A0110E000E0D701BC
:103800009D907D01C8010E94391C981621F0692DF8
:10381000C8010E94411C0F5F1F4F0430110579F74A
:1038200004E010E0F801E25FFD4F4F01F12CE12CC4
:10383000D4015D904D013701600E711EC3010E94DD
:10384000391C581621F0652DC3010E94411CBFEFA1
:10385000EB1AFB0AE0E1EE16F10451F7005F1F4F8F
:10386000C8010E94F60804331105E1F60E941C0D00
:103870007ECFF999FECF92BD81BDF89A992780B588
:103880000895262FF999FECF1FBA92BD81BD20BDA4
:103890000FB6F894FA9AF99A0FBE01960895DB01D3
:1038A0008F939F930E94811CBF91AF91A29F800D27
:1038B000911DA39F900DB29F900D11240895A1E238
:1038C0001A2EAA1BBB1BFD010DC0AA1FBB1FEE1F9A
:1038D000FF1FA217B307E407F50720F0A21BB30BE5
:1038E000E40BF50B661F771F881F991F1A9469F761
:1038F00060957095809590959B01AC01BD01CF01BD
:1039000008950E948C1CA59F900DB49F900DA49FBC
:10391000800D911D11240895A29FB001B39FC00195
:10392000A39F700D811D1124911DB29F700D811DEB
:103930001124911D0895AA1BBB1B51E107C0AA1FAA
:10394000BB1FA617B70710F0A61BB70B881F991F40
:103950005A95A9F780959095BC01CD010895EE0F79
:10396000FF1F0590F491E02D0994002E083090F08F
:10397000982F872F762F652F542F432F322F2227F2
:103980000850F4CF220F331F441F551F661F771FA7
:10399000881F991F0A95B2F7002D0895F894FFCF5C
:1039A000F905F90501000000000000000000320ADE
:1039B0000605100F119E01AC01A301B101BF01B6B4
:1039C00001C201210115010F01BF020B0108010411
:1039D00001FA00F100E400D500C600B200AE00AA72
:1039E00000A2009C00970091008B0082007A00707A
:1039F000006800000000002F048F03BC039C04ED4E
:103A000003CB03DF030D0A0053746F72696E6720E6
:103A1000636F646520617420696E64657820005668
:103A2000697267696E20454550524F4D21004D6FB8
:103A300064653A2000427574746F6E3A20004964E0
:103A40006C65004465626F756E636520446F776EC8
:103A50000048656C64004465626F756E636520554F
:0C3A600070004C6F6E677072657373002D
:107800000C94343C0C94513C0C94513C0C94513CE1
:107810000C94513C0C94513C0C94513C0C94513CB4
:107820000C94513C0C94513C0C94513C0C94513CA4
:107830000C94513C0C94513C0C94513C0C94513C94
:107840000C94513C0C94513C0C94513C0C94513C84
:107850000C94513C0C94513C0C94513C0C94513C74
:107860000C94513C0C94513C11241FBECFEFD8E036
:10787000DEBFCDBF11E0A0E0B1E0ECE9FFE702C060
:1078800005900D92A230B107D9F712E0A2E0B1E065
:1078900001C01D92AD30B107E1F70E942D3D0C945F
:1078A000CC3F0C94003C982F959595959595959582
:1078B000905D8F708A307CF0282F295A8091C0000B
:1078C00085FFFCCF9093C6008091C00085FFFCCF60
:1078D0002093C6000895282F205DF0CF982F809127
:1078E000C00085FFFCCF9093C6000895EF92FF92F1
:1078F0000F931F93EE24FF2487018091C00087FD22
:1079000017C00894E11CF11C011D111D81E4E8164B
:1079100082E4F8068FE0080780E0180770F3E09132
:107920000401F091050109958091C00087FFE9CF1E
:107930008091C6001F910F91FF90EF9008950E94D3
:10794000763C982F8091C00085FFFCCF9093C600B5
:1079500091362CF490330CF09053892F089597555D
:10796000892F08951F930E949F3C182F0E949F3CCF
:107970001295107F810F1F9108951F93182F882350
:1079800021F00E94763C1150E1F71F9108951F935A
:10799000182F0E94763C803249F0809103018F5F5E
:1079A000809303018530C1F01F9108958091C0003C
:1079B00085FFFCCF84E18093C6008091C00085FFE5
:1079C000FCCF1093C6008091C00085FFFCCF80E102
:1079D0008093C6001F910895E0910401F091050184
:1079E00009951F9108950E94763C803241F0809164
:1079F00003018F5F80930301853081F008958091AA
:107A0000C00085FFFCCF84E18093C6008091C00058
:107A100085FFFCCF80E18093C6000895E0910401CA
:107A2000F09105010995089540E951E08823A1F0FE
:107A30002D9A28EE33E0FA013197F1F721503040CA
:107A4000D1F72D9828EE33E0FA013197F1F7215064
:107A50003040D1F7815061F708953F924F925F9285
:107A60006F927F928F929F92AF92BF92CF92DF924E
:107A7000EF92FF920F931F93CF93DF93000080E16B
:107A80008093C4001092C50088E18093C10086E015
:107A90008093C2005098589A259A81E00E94143D24
:107AA00024E1F22E9EE1E92E85E9D82E0FE0C02ECA
:107AB00010E1B12EAA24A394B1E49B2EA6E58A2E50
:107AC000F2E57F2EE0E26E2E79E4572E63E5462E36
:107AD00050E5352E0E94763C8033B1F18133B9F107
:107AE000803409F46FC0813409F476C0823409F41B
:107AF00085C0853409F488C0803531F1823521F1A3
:107B0000813511F1853509F485C0863509F48DC0BC
:107B1000843609F496C0843709F403C1853709F423
:107B200072C1863709F466C0809103018F5F80932C
:107B30000301853079F6E0910401F0910501099582
:107B40000E94763C803351F60E94F33CC3CF0E94E2
:107B5000763C803249F78091C00085FFFCCFF092DF
:107B6000C6008091C00085FFFCCF9092C600809136
:107B7000C00085FFFCCF8092C6008091C00085FFC9
:107B8000FCCF7092C6008091C00085FFFCCF609250
:107B9000C6008091C00085FFFCCF5092C600809146
:107BA000C00085FFFCCF4092C6008091C00085FFD9
:107BB000FCCF3092C6008091C00085FFFCCFB09210
:107BC000C60088CF0E94763C863808F4BDCF0E945C
:107BD000763C0E94F33C7ECF0E94763C803809F4CC
:107BE0009CC0813809F40BC1823809F43CC1883942
:107BF00009F48FC080E00E94C73C6CCF84E10E94F2
:107C0000BD3C0E94F33C66CF85E00E94BD3C0E94D3
:107C1000F33C60CF0E94763C809306010E94763C44
:107C2000809307010E94F33C55CF0E94763C80333D
:107C300009F41DC183E00E94BD3C80E00E94C73C66
:107C400049CF0E94763C809309020E94763C809343
:107C5000080280910C028E7F80930C020E94763C79
:107C6000853409F415C18091080290910902892B8D
:107C700089F000E010E00E94763CF801E85FFE4FDA
:107C800080830F5F1F4F80910802909109020817AF
:107C9000190788F30E94763C803209F045CF809125
:107CA0000C0280FF01C16091060170910701660F0F
:107CB000771F7093070160930601A0910802B091AD
:107CC00009021097C9F0E8E0F1E09B01AD014E0F09
:107CD0005F1FF999FECF32BD21BD819180BDFA9A17
:107CE000F99A2F5F3F4FE417F50799F76A0F7B1F4B
:107CF00070930701609306018091C00085FFFCCF5F
:107D0000F092C6008091C00085FFFCCFB092C60003
:107D1000E1CE83E00E94C73CDDCE82E00E94C73CFA
:107D2000D9CE0E94763C809309020E94763C8093D3
:107D300008028091060190910701880F991F909386
:107D40000701809306010E94763C853409F4A6C0A1
:107D500080910C028E7F80930C020E94763C8032D0
:107D600009F0B8CE8091C00085FFFCCFF092C6002C
:107D7000609108027091090261157105B9F140E046
:107D800050E080910C02A82FA170B82FB27011C0E2
:107D9000BB2309F45CC0E0910601F0910701319624
:107DA000F0930701E09306014F5F5F4F46175707B7
:107DB000E8F4AA2369F3F999FECF209106013091E6
:107DC000070132BD21BDF89A90B58091C00085FFB2
:107DD000FCCF9093C6002F5F3F4F30930701209355
:107DE00006014F5F5F4F4617570718F38091C00099
:107DF00085FDE5CE8091C00085FFF8CFE0CE81E023
:107E00000E94C73C67CE0E94763C803209F08CCE3F
:107E10008091C00085FFFCCFF092C6008091C00029
:107E200085FFFCCFE092C6008091C00085FFFCCFAB
:107E3000D092C6008091C00085FFFCCFC092C600E2
:107E40008091C00085FFFCCFB092C60043CEE09188
:107E50000601F091070194918091C00085FFFCCF4D
:107E60009093C6009CCF80E10E94C73C33CE0E9415
:107E7000763C0E94763C182F0E94763C112309F430
:107E800083C0113009F484C08FE00E94C73C22CE29
:107E900080910C02816080930C02E5CE80910C02EF
:107EA000816080930C0259CF809107018823880F4D
:107EB000880B8A2180930B02809106019091070123
:107EC000880F991F90930701809306018091080203
:107ED00080FF09C080910802909109020196909359
:107EE000090280930802F894F999FECF1127E091D6
:107EF0000601F0910701C8E0D1E08091080290915D
:107F00000902103091F40091570001700130D9F34B
:107F100003E000935700E89500915700017001308D
:107F2000D9F301E100935700E89509901990009169
:107F3000570001700130D9F301E000935700E89534
:107F40001395103498F011270091570001700130FB
:107F5000D9F305E000935700E895009157000170B0
:107F60000130D9F301E100935700E895329602976A
:107F700009F0C7CF103011F00296E5CF112480919F
:107F8000C00085FFB9CEBCCE8EE10E94C73CA2CD19
:0E7F900085E90E94C73C9ECDF894FFCF80008B
:00000001FF
